{
    "abi": [
        {
            "stateMutability": "payable",
            "type": "fallback"
        },
        {
            "inputs": [],
            "name": "implementation",
            "outputs": [
                {
                    "internalType": "address",
                    "name": "impl",
                    "type": "address"
                }
            ],
            "stateMutability": "view",
            "type": "function"
        },
        {
            "inputs": [
                {
                    "internalType": "address",
                    "name": "impl",
                    "type": "address"
                }
            ],
            "name": "upgradeTo",
            "outputs": [],
            "stateMutability": "nonpayable",
            "type": "function"
        },
        {
            "stateMutability": "payable",
            "type": "receive"
        }
    ],
    "evm": {
        "bytecode": {
            "linkReferences": {},
            "object": "608060405234801561001057600080fd5b50610276806100206000396000f3fe60806040526004361061002d5760003560e01c80633659cfe6146100465780635c60da1b1461006f5761003c565b3661003c5761003a61009a565b005b61004461009a565b005b34801561005257600080fd5b5061006d600480360381019061006891906101e9565b6100e7565b005b34801561007b57600080fd5b50610084610155565b6040516100919190610225565b60405180910390f35b60007f6e41e0fbe643dfdb6043698bf865aada82dc46b953f754a3468eaa272a362dc760001b9050604051363d82373d3d368385545af43d6000833e80600081146100e3573d83f35b3d83fd5b6000807f6e41e0fbe643dfdb6043698bf865aada82dc46b953f754a3468eaa272a362dc760001b9050805491508273ffffffffffffffffffffffffffffffffffffffff168273ffffffffffffffffffffffffffffffffffffffff16141561014d57600080fd5b828155505050565b6000807f6e41e0fbe643dfdb6043698bf865aada82dc46b953f754a3468eaa272a362dc760001b9050805491505090565b600080fd5b600073ffffffffffffffffffffffffffffffffffffffff82169050919050565b60006101b68261018b565b9050919050565b6101c6816101ab565b81146101d157600080fd5b50565b6000813590506101e3816101bd565b92915050565b6000602082840312156101ff576101fe610186565b5b600061020d848285016101d4565b91505092915050565b61021f816101ab565b82525050565b600060208201905061023a6000830184610216565b9291505056fea2646970667358221220d71ada2ce28d05c479da8669bea2dedbffd4c55aecb9eecb8ed9b47ec7d9e71b64736f6c634300080a0033",
            "opcodes": "PUSH1 0x80 PUSH1 0x40 MSTORE CALLVALUE DUP1 ISZERO PUSH2 0x10 JUMPI PUSH1 0x0 DUP1 REVERT JUMPDEST POP PUSH2 0x276 DUP1 PUSH2 0x20 PUSH1 0x0 CODECOPY PUSH1 0x0 RETURN INVALID PUSH1 0x80 PUSH1 0x40 MSTORE PUSH1 0x4 CALLDATASIZE LT PUSH2 0x2D JUMPI PUSH1 0x0 CALLDATALOAD PUSH1 0xE0 SHR DUP1 PUSH4 0x3659CFE6 EQ PUSH2 0x46 JUMPI DUP1 PUSH4 0x5C60DA1B EQ PUSH2 0x6F JUMPI PUSH2 0x3C JUMP JUMPDEST CALLDATASIZE PUSH2 0x3C JUMPI PUSH2 0x3A PUSH2 0x9A JUMP JUMPDEST STOP JUMPDEST PUSH2 0x44 PUSH2 0x9A JUMP JUMPDEST STOP JUMPDEST CALLVALUE DUP1 ISZERO PUSH2 0x52 JUMPI PUSH1 0x0 DUP1 REVERT JUMPDEST POP PUSH2 0x6D PUSH1 0x4 DUP1 CALLDATASIZE SUB DUP2 ADD SWAP1 PUSH2 0x68 SWAP2 SWAP1 PUSH2 0x1E9 JUMP JUMPDEST PUSH2 0xE7 JUMP JUMPDEST STOP JUMPDEST CALLVALUE DUP1 ISZERO PUSH2 0x7B JUMPI PUSH1 0x0 DUP1 REVERT JUMPDEST POP PUSH2 0x84 PUSH2 0x155 JUMP JUMPDEST PUSH1 0x40 MLOAD PUSH2 0x91 SWAP2 SWAP1 PUSH2 0x225 JUMP JUMPDEST PUSH1 0x40 MLOAD DUP1 SWAP2 SUB SWAP1 RETURN JUMPDEST PUSH1 0x0 PUSH32 0x6E41E0FBE643DFDB6043698BF865AADA82DC46B953F754A3468EAA272A362DC7 PUSH1 0x0 SHL SWAP1 POP PUSH1 0x40 MLOAD CALLDATASIZE RETURNDATASIZE DUP3 CALLDATACOPY RETURNDATASIZE RETURNDATASIZE CALLDATASIZE DUP4 DUP6 SLOAD GAS DELEGATECALL RETURNDATASIZE PUSH1 0x0 DUP4 RETURNDATACOPY DUP1 PUSH1 0x0 DUP2 EQ PUSH2 0xE3 JUMPI RETURNDATASIZE DUP4 RETURN JUMPDEST RETURNDATASIZE DUP4 REVERT JUMPDEST PUSH1 0x0 DUP1 PUSH32 0x6E41E0FBE643DFDB6043698BF865AADA82DC46B953F754A3468EAA272A362DC7 PUSH1 0x0 SHL SWAP1 POP DUP1 SLOAD SWAP2 POP DUP3 PUSH20 0xFFFFFFFFFFFFFFFFFFFFFFFFFFFFFFFFFFFFFFFF AND DUP3 PUSH20 0xFFFFFFFFFFFFFFFFFFFFFFFFFFFFFFFFFFFFFFFF AND EQ ISZERO PUSH2 0x14D JUMPI PUSH1 0x0 DUP1 REVERT JUMPDEST DUP3 DUP2 SSTORE POP POP POP JUMP JUMPDEST PUSH1 0x0 DUP1 PUSH32 0x6E41E0FBE643DFDB6043698BF865AADA82DC46B953F754A3468EAA272A362DC7 PUSH1 0x0 SHL SWAP1 POP DUP1 SLOAD SWAP2 POP POP SWAP1 JUMP JUMPDEST PUSH1 0x0 DUP1 REVERT JUMPDEST PUSH1 0x0 PUSH20 0xFFFFFFFFFFFFFFFFFFFFFFFFFFFFFFFFFFFFFFFF DUP3 AND SWAP1 POP SWAP2 SWAP1 POP JUMP JUMPDEST PUSH1 0x0 PUSH2 0x1B6 DUP3 PUSH2 0x18B JUMP JUMPDEST SWAP1 POP SWAP2 SWAP1 POP JUMP JUMPDEST PUSH2 0x1C6 DUP2 PUSH2 0x1AB JUMP JUMPDEST DUP2 EQ PUSH2 0x1D1 JUMPI PUSH1 0x0 DUP1 REVERT JUMPDEST POP JUMP JUMPDEST PUSH1 0x0 DUP2 CALLDATALOAD SWAP1 POP PUSH2 0x1E3 DUP2 PUSH2 0x1BD JUMP JUMPDEST SWAP3 SWAP2 POP POP JUMP JUMPDEST PUSH1 0x0 PUSH1 0x20 DUP3 DUP5 SUB SLT ISZERO PUSH2 0x1FF JUMPI PUSH2 0x1FE PUSH2 0x186 JUMP JUMPDEST JUMPDEST PUSH1 0x0 PUSH2 0x20D DUP5 DUP3 DUP6 ADD PUSH2 0x1D4 JUMP JUMPDEST SWAP2 POP POP SWAP3 SWAP2 POP POP JUMP JUMPDEST PUSH2 0x21F DUP2 PUSH2 0x1AB JUMP JUMPDEST DUP3 MSTORE POP POP JUMP JUMPDEST PUSH1 0x0 PUSH1 0x20 DUP3 ADD SWAP1 POP PUSH2 0x23A PUSH1 0x0 DUP4 ADD DUP5 PUSH2 0x216 JUMP JUMPDEST SWAP3 SWAP2 POP POP JUMP INVALID LOG2 PUSH5 0x6970667358 0x22 SLT KECCAK256 0xD7 BYTE 0xDA 0x2C 0xE2 DUP14 SDIV 0xC4 PUSH26 0xDA8669BEA2DEDBFFD4C55AECB9EECB8ED9B47EC7D9E71B64736F PUSH13 0x634300080A0033000000000000 "
        }
    }
}